:100000000C945D000C9485000C9485000C94850084
:100010000C9485000C9485000C9485000C9485004C
:100020000C9485000C9485000C9485000C94F402CB
:100030000C9485000C9485000C9485000C9485002C
:100040000C942A040C9485000C94F0030C94B503D2
:100050000C9485000C9485000C9485000C9485000C
:100060000C9485000C9485000000000024002700FB
:100070002A0000000000250028002B0004040404CE
:100080000404040402020202020203030303030342
:10009000010204081020408001020408102001021F
:1000A00004081020000000070002010000030406FD
:1000B0000000000000000000740411241FBECFEFF8
:1000C000D8E0DEBFCDBF11E0A0E0B1E0E6E1FFE0A7
:1000D00002C005900D92A232B107D9F721E0A2E249
:1000E000B1E001C01D92AE3FB207E1F710E0CDE5EF
:1000F000D0E004C02197FE010E948307CC35D107D0
:10010000C9F70E94E5040C94E9060C940000CF9214
:10011000DF92EF92FF92DC01A03282E0B8070CF090
:100120003EC0B7FD06C0A53BB1052CF0A4EBB0E086
:1001300002C0A0E0B0E08091FC0128E830E0690155
:10014000C81AD10887FDD394CC0CDD1CCC0CDD1C67
:100150000D2C000CEE08FF088091FD0128E532E02F
:10016000281B310987FD3395220F331F220F331FC0
:10017000A901330F660B770B9A01AB012C193D09CE
:100180004E095F090E94160724EB30E040E050E082
:100190000E94EC06C20ED31EE41EF51ED6019091FD
:1001A000FB019C3098F58091FC0148E850E0481B29
:1001B000510987FD5395440F551F440F551FA41730
:1001C000B5078CF08091FD0128E532E0281B31094C
:1001D00087FD3395220F331F220F331FAD012A17DE
:1001E0003B070CF4A9012FB7F894892F90E0FC018C
:1001F000EE0FFF1F8E0F9F1FFC01EA52FE4F425071
:100200005109440F551F528341832FBFFF90EF9038
:10021000DF90CF900895CF92DF92EF92FF920F93ED
:100220001F93CF93DF936C01EB017B01E40EF51E6E
:1002300000E010E0CE15DF0561F06991D601ED9187
:10024000FC910190F081E02DC6010995080F191F5E
:10025000F1CFC801DF91CF911F910F91FF90EF90E7
:10026000DF90CF900895089590E0FC01EC55FF4F8A
:100270002491FC01E057FF4F3491FC01E458FF4FFB
:10028000E491EE2309F43CC0222339F1233091F0AC
:1002900038F42130A9F0223001F584B58F7D12C0E9
:1002A000263091F02730A1F02430B9F480918000FD
:1002B0008F7D03C0809180008F77809380000DC078
:1002C00084B58F7784BD09C08091B0008F7703C05B
:1002D0008091B0008F7D8093B000F0E0EE0FFF1FA3
:1002E000EE58FF4FA591B4919FB7F894611104C0E7
:1002F0008C913095382302C0EC913E2B3C939FBFEC
:1003000008950F931F93CF93DF93FC01A685B785C4
:100310008D01005C1F4FE8018881998101968F73E0
:100320009927AD014E5B5F4FEA012881398128177B
:100330003907D1F3E80128813981A20FB31F6C93EB
:10034000A685B785A05CBF4F11969C938E93A68916
:10035000B7892C9181E090E0078C02C0880F991F2B
:100360000A94E2F7822B8C9381E081A30488F589BB
:10037000E02D80818064808381E090E0DF91CF91E7
:100380001F910F910895FC0181A1882329F0A48970
:10039000B5898C9186FFFBCF11A20895FC01A4853D
:1003A000B585FD01E05CFF4F20813181329680816F
:1003B00091812817390779F080819181A80FB91FA1
:1003C0008C91208131812F5F3F4F2F7333273183F1
:1003D000208390E008958FEF9FEF0895DC011C9635
:1003E000ED91FC911D97DF01A05CBF4F2D913C91D9
:1003F000119712968D919C9111972817390739F012
:100400008D919C91E80FF91F808190E008958FEF06
:100410009FEF08952FB7F8948091280190912901BA
:10042000A0912A01B0912B012FBF8093BC01909322
:10043000BD01A093BE01B093BF0184EB91E00E9487
:10044000EE0197FF26C02FB7F89480912801909174
:100450002901A0912A01B0912B012FBF4091BC012D
:100460005091BD016091BE017091BF01841B950B3D
:10047000A60BB70B4091B8015091B9016091BA0138
:100480007091BB0184179507A607B707B0F28FEFED
:100490009FEF0895FC0124853585F901E05CFF4F4D
:1004A00080819181329620813181821B930B8F73E1
:1004B0009927089584EB91E00C944A023FB7F89491
:1004C0008091230190912401A0912501B0912601F2
:1004D00026B5A89B05C02F3F19F00196A11DB11D9F
:1004E0003FBFBA2FA92F982F8827820F911DA11DDA
:1004F000B11DBC01CD0142E0660F771F881F991F17
:100500004A95D1F70895CF92DF92EF92FF92CF9361
:10051000DF936B017C010E945E02EB01C114D104E8
:10052000E104F10479F00E945E026C1B7D0B683ED1
:100530007340A0F381E0C81AD108E108F108C8515E
:10054000DC4FECCFDF91CF91FF90EF90DF90CF9019
:100550000895EF92FF920F931F93CF93DF9300D0F4
:1005600000D0CDB7DEB79C018091060190910701C4
:10057000A0910801B091090189839A83AB83BC8360
:100580008E010C5F1F4F8AE0E82EF12C21153105FA
:1005900089F0C901B7010E945B07FC01C9018E1BEC
:1005A0009F0BB7010E945B079B01F096D801EE9369
:1005B0008D01ECCFBE016F5F7F4FFB0101900020EA
:1005C000E9F73197AF01461B570B84EB91E00E948E
:1005D0000B010F900F900F900F90DF91CF911F9113
:1005E0000F91FF90EF9008951F920F920FB60F9208
:1005F00011242F933F934F935F936F937F938F9328
:100600009F93AF93BF93EF93FF938091270187FF51
:1006100005C010928500109284001BC02091270114
:10062000022E000C330B8091FA0190E02817390755
:1006300084F480912701082E000C990BFC01EE0F29
:10064000FF1F8E0F9F1FFC01EA52FE4F808186FD27
:1006500015C0809127018F5F80932701209127018A
:10066000022E000C330B8091FA0190E02817390715
:10067000C4F4809127018C3064F113C0809127016C
:10068000082E000C990BFC01EE0FFF1F8E0F9F1F11
:10069000FC01EA52FE4F808160E08F730E943401BA
:1006A000D8CF8091840090918500049680349C4935
:1006B00018F480E49CE905C0809184009091850045
:1006C000049690938900809388008FEF8093270190
:1006D0003BC0209184003091850080912701082E35
:1006E000000C990BFC01EE0FFF1F8E0F9F1FFC01EA
:1006F000EA52FE4F81819281820F931F909389006D
:100700008093880080912701082E000C990BFC0132
:10071000EE0FFF1F8E0F9F1FFC01EA52FE4F8081DC
:1007200086FF12C080912701082E000C990BFC0156
:10073000EE0FFF1F8E0F9F1FFC01EA52FE4F8081BC
:1007400061E08F730E943401FF91EF91BF91AF91EF
:100750009F918F917F916F915F914F913F912F91D9
:100760000F900FBE0F901F9018951F920F920FB60B
:100770000F9211242F933F938F939F93EF93FF93A7
:1007800020916C0130916D0180916E0190916F010B
:100790002817390731F48091C1008F7D8093C10003
:1007A00014C0E0916E01F0916F01E45DFE4F208175
:1007B00080916E0190916F0101968F7399279093AC
:1007C0006F0180936E012093C600FF91EF919F917E
:1007D0008F913F912F910F900FBE0F901F90189502
:1007E0001F920F920FB60F9211242F934F935F9386
:1007F0008F939F93EF93FF938091C00082FD1CC065
:100800002091C6008091B0019091B1014091B20158
:100810005091B30101968F7399274817590771F0CA
:10082000E091B001F091B101E059FE4F2083909327
:10083000B1018093B00102C08091C600FF91EF9199
:100840009F918F915F914F912F910F900FBE0F90BD
:100850001F9018951F920F920FB60F9211242F938D
:100860003F938F939F93AF93BF9380912801909173
:100870002901A0912A01B0912B013091220123E09E
:10088000230F2D3720F40196A11DB11D05C026E8C8
:10089000230F0296A11DB11D2093220180932801F0
:1008A00090932901A0932A01B0932B0180912301F9
:1008B00090912401A0912501B09126010196A11DDE
:1008C000B11D8093230190932401A0932501B0933F
:1008D0002601BF91AF919F918F913F912F910F90E2
:1008E0000FBE0F901F9018951092B7011092B6018D
:1008F00088EE93E0A0E0B0E08093B8019093B90156
:10090000A093BA01B093BB018EE091E09093B50142
:100910008093B40180E791E09093C1018093C0017E
:100920008CE291E09093C3018093C20185EC90E04A
:100930009093C5018093C40184EC90E09093C7012B
:100940008093C60180EC90E09093C9018093C80128
:1009500081EC90E09093CB018093CA0182EC90E00F
:100960009093CD018093CC0186EC90E09093CF01E1
:100970008093CE0184E08093D00183E08093D10105
:1009800087E08093D20185E08093D30181E080935A
:10099000D4018091FA018C30A0F491E0980F9093EB
:1009A000FA018093FB0190E0FC01EE0FFF1F8E0F18
:1009B0009F1FFC01EA52FE4F88EB9BE092838183EC
:1009C00008958FEF8093FB010895789484B5826039
:1009D00084BD84B5816084BD85B5826085BD85B5E3
:1009E000816085BD80916E00816080936E00109261
:1009F00081008091810082608093810080918100DC
:100A0000816080938100809180008160809380006C
:100A10008091B10084608093B1008091B0008160CA
:100A20008093B00080917A00846080937A008091F6
:100A30007A00826080937A0080917A00816080934E
:100A40007A0080917A00806880937A001092C100C9
:100A50008091FB018C3008F068C0E8E9F0E0249157
:100A6000E4E8F0E08491882399F090E0880F991FE2
:100A7000FC01E859FF4FA591B491FC01EE58FF4FDE
:100A8000859194918FB7F894EC91E22BEC938FBF02
:100A90008091FB01E82FF0E09F01220F331FE20F4E
:100AA000F31FEA52FE4F9081907C986090831092E1
:100AB000FC011092FD016CE00E944F079CE0899FB1
:100AC000B001112440E050E09B01240F351FF901D3
:100AD000EE0FFF1F2E0F3F1FF901EA52FE4F9081CC
:100AE00096FD16C04F5F5F4F4C30510569F781117D
:100AF0000FC01092800082E08093810010928500E8
:100B000010928400B19A80916F00826080936F0090
:100B1000E091FB01F0E0CF01880F991FE80FF91F6A
:100B2000EA52FE4F808180648083E091C801F09199
:100B3000C90181E090E09C010090D40102C0220F25
:100B4000331F0A94E2F72083E091C401F091C501BC
:100B50001082E091C601F091C7012FEC2083109222
:100B6000D501E091CA01F091CB0140819C01009038
:100B7000D00102C0220F331F0A94E2F7242B2083F6
:100B8000E091CA01F091CB0140819C010090D1011C
:100B900002C0220F331F0A94E2F7242B2083E09136
:100BA000CA01F091CB0140819C010090D20102C0AA
:100BB000220F331F0A94E2F7242B2083E091CA010D
:100BC000F091CB0120810090D30102C0880F991FC2
:100BD0000A94E2F780958223808383E090E0A0E08E
:100BE000B0E08093B8019093B901A093BA01B0939B
:100BF000BB018091040190910501892BC9F084EB20
:100C000091E00E944A02892BA1F384EB91E00E94BB
:100C1000CE018F3671F7109205011092040147E062
:100C200050E06AE171E084EB91E00E940B01E1CFBA
:100C300084EB91E00E944A02892B09F48BC00E9448
:100C40000A02FC0197FD0DC08D32910509F485C0A3
:100C5000C0970A9708F481C084EB91E00E94CE010E
:100C6000EECFC12CD12C7601D0920301C0920201AB
:100C70008091000190910101CD2821F4909303010E
:100C800080930201209102013091030182179307A2
:100C90005CF5E0900001F0900101809102019091DB
:100CA00003018E159F05B4F0C7010E948700C7019C
:100CB0000E94A9026FE070E080E090E00E94830251
:100CC0008091000190910101019690930101809320
:100CD0000001DFCF6AE070E080E090E00E948302D4
:100CE000F0920301E0920201209100013091010194
:100CF0008091020190910301821793075CF5E090C7
:100D00000001F09001018091020190910301E81629
:100D1000F906B4F0C7010E948700C7010E94A9022A
:100D20006FE070E080E090E00E948302809100011B
:100D30009091010101979093010180930001DFCF11
:100D40006AE070E080E090E00E948302F09203018C
:100D5000E09202010E945A024CCFC12CD12C7601A4
:100D6000C0E0E130F105E1F0ED32F105C1F0CF0175
:100D7000C0970A97A8F4AAE0B0E0A70196010E94E4
:100D80000B076F01FF0FEE08FF08C60ED71EE81E07
:100D9000F91E80E3C81AD108E108F10801C0C1E0DA
:100DA00084EB91E00E94CE010E940A02FC01C097F0
:100DB0000A97B8F2E130F105A1F2CC2309F454CF3F
:100DC000F094E094D094C094C11CD11CE11CF11C9F
:100DD0004BCFF8940C948907052E97FB1EF40094D2
:100DE0000E94030757FD07D00E941E0707FC03D08F
:100DF0004EF40C94030750954095309521953F4F44
:100E00004F4F5F4F089590958095709561957F4FF6
:100E10008F4F9F4F08950E944007A59F900DB49F4C
:100E2000900DA49F800D911D11240895B7FF0C947F
:100E30000B070E940B07821B930B0895A1E21A2E49
:100E4000AA1BBB1BFD010DC0AA1FBB1FEE1FFF1F6E
:100E5000A217B307E407F50720F0A21BB30BE40BBE
:100E6000F50B661F771F881F991F1A9469F7609505
:100E70007095809590959B01AC01BD01CF010895BF
:100E8000A29FB001B39FC001A39F700D811D1124CB
:100E9000911DB29F700D811D1124911D0895991B04
:100EA00079E004C0991F961708F0961B881F7A9561
:100EB000C9F78095089597FB072E16F4009407D084
:100EC00077FD09D00E946F0707FC05D03EF490958E
:100ED00081959F4F0895709561957F4F0895AA1B46
:100EE000BB1B51E107C0AA1FBB1FA617B70710F015
:100EF000A61BB70B881F991F5A95A9F78095909547
:100F0000BC01CD010895EE0FFF1F0590F491E02D77
:060F10000994F894FFCFE4
:100F16000100010001003030300A000000008101AC
:100F26000B014A02CE01EE01C301636F6D65636575
:020F3600690050
:00000001FF
