:100000000C945E000C9486000C9486000C94860080
:100010000C9486000C9486000C9486000C94860048
:100020000C9486000C9486000C9486000C94F502C7
:100030000C9486000C9486000C9486000C94860028
:100040000C942B040C9486000C94F1030C94B603CE
:100050000C9486000C9486000C9486000C94860008
:100060000C9486000C9486000000000024002700F9
:100070002A0000000000250028002B0004040404CE
:100080000404040402020202020203030303030342
:10009000010204081020408001020408102001021F
:1000A00004081020000000070002010000030406FD
:1000B00000000000000000007504120711241FBE9C
:1000C000CFEFD8E0DEBFCDBF11E0A0E0B1E0E6EEBB
:1000D000F3E102C005900D92A032B107D9F722E0FA
:1000E000A0E2B1E001C01D92A730B207E1F710E035
:1000F000CDE5D0E004C02197FE010E94E009CC3597
:10010000D107C9F70E942D050C9418070C94000024
:10011000CF92DF92EF92FF92DC01A03282E0B8072B
:100120000CF03EC0B7FD06C0A53BB1052CF0A4EB1A
:10013000B0E002C0A0E0B0E08091010228E830E029
:100140006901C81AD10887FDD394CC0CDD1CCC0CF6
:10015000DD1C0D2C000CEE08FF088091020228E542
:1001600032E0281B310987FD3395220F331F220F00
:10017000331FA901330F660B770B9A01AB012C19C2
:100180003D094E095F090E94450724EB30E040E03D
:1001900050E00E941B07C20ED31EE41EF51ED601BE
:1001A000909100029C3098F58091010248E850E05F
:1001B000481B510987FD5395440F551F440F551F88
:1001C000A417B5078CF08091020228E532E0281BC5
:1001D000310987FD3395220F331F220F331FAD01E5
:1001E0002A173B070CF4A9012FB7F894892F90E048
:1001F000FC01EE0FFF1F8E0F9F1FFC01EC52FE4F04
:1002000042505109440F551F528341832FBFFF9025
:10021000EF90DF90CF900895CF92DF92EF92FF9210
:100220000F931F93CF93DF936C01EB017B01E40EDF
:10023000F51E00E010E0CE15DF0561F06991D601F2
:10024000ED91FC910190F081E02DC6010995080F18
:10025000191FF1CFC801DF91CF911F910F91FF902E
:10026000EF90DF90CF900895089590E0FC01EC5559
:10027000FF4F2491FC01E057FF4F3491FC01E458FB
:10028000FF4FE491EE2309F43CC0222339F12330DF
:1002900091F038F42130A9F0223001F584B58F7D3A
:1002A00012C0263091F02730A1F02430B9F48091AB
:1002B00080008F7D03C0809180008F7780938000C5
:1002C0000DC084B58F7784BD09C08091B0008F7751
:1002D00003C08091B0008F7D8093B000F0E0EE0FFE
:1002E000FF1FEE58FF4FA591B4919FB7F89461118D
:1002F00004C08C913095382302C0EC913E2B3C9386
:100300009FBF08950F931F93CF93DF93FC01A685A2
:10031000B7858D01005C1F4FE801888199810196A6
:100320008F739927AD014E5B5F4FEA0128813981B8
:1003300028173907D1F3E80128813981A20FB31FAB
:100340006C93A685B785A05CBF4F11969C938E9346
:10035000A689B7892C9181E090E0078C02C0880FB4
:10036000991F0A94E2F7822B8C9381E081A3048881
:10037000F589E02D80818064808381E090E0DF91C9
:10038000CF911F910F910895FC0181A1882329F03D
:10039000A489B5898C9186FFFBCF11A20895FC0139
:1003A000A485B585FD01E05CFF4F20813181329647
:1003B000808191812817390779F080819181A80F78
:1003C000B91F8C91208131812F5F3F4F2F733327CD
:1003D0003183208390E008958FEF9FEF0895DC0133
:1003E0001C96ED91FC911D97DF01A05CBF4F2D91F4
:1003F0003C91119712968D919C911197281739076E
:1004000039F08D919C91E80FF91F808190E008955B
:100410008FEF9FEF08952FB7F89480912601909168
:100420002701A0912801B09129012FBF8093BA0123
:100430009093BB01A093BC01B093BD0182EB91E00E
:100440000E94EF0197FF26C02FB7F89480912601F4
:1004500090912701A0912801B09129012FBF4091CF
:10046000BA015091BB016091BC017091BD01841B28
:10047000950BA60BB70B4091B6015091B701609157
:10048000B8017091B90184179507A607B707B0F2B4
:100490008FEF9FEF0895FC0124853585F901E05C1D
:1004A000FF4F80819181329620813181821B930B95
:1004B0008F739927089582EB91E00C944B023FB71C
:1004C000F8948091210190912201A0912301B09193
:1004D000240126B5A89B05C02F3F19F00196A11D48
:1004E000B11D3FBFBA2FA92F982F8827820F911DCA
:1004F000A11DB11DBC01CD0142E0660F771F881F11
:10050000991F4A95D1F70895CF92DF92EF92FF920B
:10051000CF93DF936B017C010E945F02EB01C1145A
:10052000D104E104F10479F00E945F026C1B7D0BA1
:10053000683E7340A0F381E0C81AD108E108F108D1
:10054000C851DC4FECCFDF91CF91FF90EF90DF905F
:10055000CF900895EF92FF920F931F93CF93DF9365
:1005600000D000D0CDB7DEB79C0180910A019091F8
:100570000B01A0910C01B0910D0189839A83AB838B
:10058000BC838E010C5F1F4F8AE0E82EF12C2115F1
:10059000310589F0C901B7010E948109FC01C90137
:1005A0008E1B9F0BB7010E9481099B01F096D80119
:1005B000EE938D01ECCFBE016F5F7F4FFB01019089
:1005C0000020E9F73197AF01461B570B82EB91E012
:1005D0000E940C010F900F900F900F90DF91CF9120
:1005E0001F910F91FF90EF9008951F920F920FB6F9
:1005F0000F9211242F933F934F935F936F937F93A9
:100600008F939F93AF93BF93EF93FF9380912501B7
:1006100087FF05C010928500109284001BC02091B6
:100620002501022E000C330B8091F80190E0281771
:10063000390784F480912501082E000C990BFC01E8
:10064000EE0FFF1F8E0F9F1FFC01EC52FE4F8081AB
:1006500086FD15C0809125018F5F80932501209133
:100660002501022E000C330B8091F80190E0281731
:100670003907C4F4809125018C3064F113C0809156
:100680002501082E000C990BFC01EE0FFF1F8E0FA9
:100690009F1FFC01EC52FE4F808160E08F730E942F
:1006A0003501D8CF809184009091850004968034E4
:1006B0009C4918F480E49CE905C0809184009091E5
:1006C0008500049690938900809388008FEF809333
:1006D00025013BC020918400309185008091250147
:1006E000082E000C990BFC01EE0FFF1F8E0F9F1FB1
:1006F000FC01EC52FE4F81819281820F931F9093F7
:1007000089008093880080912501082E000C990BA8
:10071000FC01EE0FFF1F8E0F9F1FFC01EC52FE4FDE
:10072000808186FF12C080912501082E000C990B54
:10073000FC01EE0FFF1F8E0F9F1FFC01EC52FE4FBE
:10074000808161E08F730E943501FF91EF91BF912D
:10075000AF919F918F917F916F915F914F913F9159
:100760002F910F900FBE0F901F9018951F920F9210
:100770000FB60F9211242F933F938F939F93EF9374
:10078000FF9320916A0130916B0180916C019091EF
:100790006D012817390731F48091C1008F7D809356
:1007A000C10014C0E0916C01F0916D01E65DFE4F57
:1007B000208180916C0190916D0101968F73992732
:1007C00090936D0180936C012093C600FF91EF918F
:1007D0009F918F913F912F910F900FBE0F901F907F
:1007E00018951F920F920FB60F9211242F934F93CB
:1007F0005F938F939F93EF93FF938091C00082FD4F
:100800001CC02091C6008091AE019091AF01409133
:10081000B0015091B10101968F739927481759077C
:1008200071F0E091AE01F091AF01E259FE4F2083EB
:100830009093AF018093AE0102C08091C600FF91FA
:10084000EF919F918F915F914F912F910F900FBEDC
:100850000F901F9018951F920F920FB60F921124B0
:100860002F933F938F939F93AF93BF9380912601D4
:1008700090912701A0912801B09129013091200188
:1008800023E0230F2D3720F40196A11DB11D05C0D3
:1008900026E8230F0296A11DB11D2093200180930D
:1008A000260190932701A0932801B09329018091FC
:1008B000210190912201A0912301B0912401019680
:1008C000A11DB11D8093210190932201A0932301CA
:1008D000B0932401BF91AF919F918F913F912F9140
:1008E0000F900FBE0F901F9018951092B5011092A7
:1008F000B40188EE93E0A0E0B0E08093B60190935D
:10090000B701A093B801B093B90182E191E090934F
:10091000B3018093B2018EE691E09093BF01809382
:10092000BE018AE291E09093C1018093C00185EC01
:1009300090E09093C3018093C20184EC90E0909387
:10094000C5018093C40180EC90E09093C70180932F
:10095000C60181EC90E09093C9018093C80182ECBC
:1009600090E09093CB018093CA0186EC90E0909345
:10097000CD018093CC0184E08093CE0183E080930D
:10098000CF0187E08093D00185E08093D10181E0A1
:100990008093D2018091F8018C30A0F491E0980FFF
:1009A0009093F8018093000290E0FC01EE0FFF1F8E
:1009B0008E0F9F1FFC01EC52FE4F88EB9BE0928351
:1009C000818303C08FEF809300021092FA0110928E
:1009D000F9011092FC011092FB011092FE0110929D
:1009E000FD011092FF0161E070E080E090E00E9464
:1009F0009F08009789F09093FA018093F901109273
:100A0000FC011092FB012091FD013091FE01232B8E
:100A1000C1F4FC01108215C08091F9019091FA0196
:100A2000009711F00E9416081092FA011092F90135
:100A30001092FE011092FD011092FC011092FB0138
:100A400008951092FE011092FD016EE171E0809117
:100A5000F9019091FA010C946E09789484B5826042
:100A600084BD84B5816084BD85B5826085BD85B552
:100A7000816085BD80916E00816080936E001092D0
:100A8000810080918100826080938100809181004B
:100A900081608093810080918000816080938000DC
:100AA0008091B10084608093B1008091B00081603A
:100AB0008093B00080917A00846080937A00809166
:100AC0007A00826080937A0080917A0081608093BE
:100AD0007A0080917A00806880937A001092C10039
:100AE000809100028C3008F068C0E8E9F0E02491C1
:100AF000E4E8F0E08491882399F090E0880F991F52
:100B0000FC01E859FF4FA591B491FC01EE58FF4F4D
:100B1000859194918FB7F894EC91E22BEC938FBF71
:100B200080910002E82FF0E09F01220F331FE20FB7
:100B3000F31FEC52FE4F9081907C9860908310924E
:100B40000102109202026CE00E9475099CE0899FEC
:100B5000B001112440E050E09B01240F351FF90142
:100B6000EE0FFF1F2E0F3F1FF901EC52FE4F908139
:100B700096FD16C04F5F5F4F4C30510569F78111EC
:100B80000FC01092800082E0809381001092850057
:100B900010928400B19A80916F00826080936F0000
:100BA000E0910002F0E0CF01880F991FE80FF91FD4
:100BB000EC52FE4F808180648083E091C601F09109
:100BC000C70181E090E09C010090D20102C0220F99
:100BD000331F0A94E2F72083E091C201F091C30130
:100BE0001082E091C401F091C5012FEC2083109296
:100BF000D301E091C801F091C90140819C010090AE
:100C0000CE0102C0220F331F0A94E2F7242B208367
:100C1000E091C801F091C90140819C010090CF0191
:100C200002C0220F331F0A94E2F7242B2083E091A5
:100C3000C801F091C90140819C010090D00102C01F
:100C4000220F331F0A94E2F7242B2083E091C8017E
:100C5000F091C90120810090D10102C0880F991F35
:100C60000A94E2F780958223808383E090E0A0E0FD
:100C7000B0E08093B6019093B701A093B801B09310
:100C8000B90182EB91E00E944B02892B09F48BC0E1
:100C90000E940B02FC0197FD0DC08D32910509F4F5
:100CA00085C0C0970A9708F481C082EB91E00E944A
:100CB000CF01EECFC12CD12C7601D0920301C0928E
:100CC00002018091000190910101CD2821F49093BF
:100CD00003018093020120910201309103018217E8
:100CE00093075CF5E0900001F09001018091020112
:100CF000909103018E159F05B4F0C7010E948800F2
:100D0000C7010E94AA026FE070E080E090E00E94BC
:100D1000840280910001909101010196909301015C
:100D200080930001DFCF6AE070E080E090E00E94F5
:100D30008402F0920301E0920201209100013091BF
:100D400001018091020190910301821793075CF5E4
:100D5000E0900001F0900101809102019091030167
:100D6000E816F906B4F0C7010E948800C7010E9486
:100D7000AA026FE070E080E090E00E94840280911F
:100D8000000190910101019790930101809300016E
:100D9000DFCF6AE070E080E090E00E948402F09291
:100DA0000301E09202010E945B026BCFC12CD12CA7
:100DB0007601C0E0E130F105E1F0ED32F105C1F07E
:100DC000CF01C0970A97A8F4AAE0B0E0A701960166
:100DD0000E943A076F01FF0FEE08FF08C60ED71EEC
:100DE000E81EF91E80E3C81AD108E108F10801C025
:100DF000C1E082EB91E00E94CF010E940B02FC0156
:100E0000C0970A97B8F2E130F105A1F2CC2309F4BA
:100E100054CFF094E094D094C094C11CD11CE11C38
:100E2000F11C4BCF8091F9019091FA010C941608B6
:100E3000F8940C94E609052E97FB1EF400940E948A
:100E4000320757FD07D00E944D0707FC03D04EF430
:100E50000C94320750954095309521953F4F4F4F58
:100E60005F4F089590958095709561957F4F8F4F56
:100E70009F4F08950E946F07A59F900DB49F900DFE
:100E8000A49F800D911D11240895B7FF0C943A077B
:100E90000E943A07821B930B0895A1E21A2EAA1B07
:100EA000BB1BFD010DC0AA1FBB1FEE1FFF1FA2171A
:100EB000B307E407F50720F0A21BB30BE40BF50B17
:100EC000661F771F881F991F1A9469F760957095A0
:100ED000809590959B01AC01BD01CF010895A29F23
:100EE000B001B39FC001A39F700D811D1124911DFE
:100EF000B29F700D811D1124911D08950F931F93B2
:100F0000CF93DF938230910510F482E090E0E0917E
:100F10000502F091060220E030E0A0E0B0E030975A
:100F200019F1408151810281138148175907C8F096
:100F30008417950769F4109731F012960C93129765
:100F400013961C9327C0009305021093060222C03B
:100F50002115310519F04217530718F49A01BD0104
:100F6000EF01DF01F801DBCF21153105F9F0281B76
:100F7000390B2430310580F48A819B81611571051C
:100F800021F0FB019383828304C090930602809337
:100F90000502FE01329644C0FE01E20FF31F819369
:100FA000919322503109398328833AC0209103025A
:100FB00030910402232B41F4209106013091070166
:100FC0003093040220930302209104013091050123
:100FD0002115310541F42DB73EB7409108015091DC
:100FE0000901241B350BE0910302F0910402E21782
:100FF000F307A0F42E1B3F0B2817390778F0AC013C
:101000004E5F5F4F2417350748F04E0F5F1F509318
:101010000402409303028193919302C0E0E0F0E068
:10102000CF01DF91CF911F910F910895CF93DF935F
:10103000009709F481C0FC01329713821282A091BB
:101040000502B0910602109781F420813181820F50
:10105000931F20910302309104022817390751F59C
:10106000F0930402E093030267C0ED0120E030E05A
:10107000CE17DF0740F44A815B819E01411551057F
:10108000F1F0EA01F5CFD383C28340815181840F0F
:10109000951FC817D90759F488819981840F951F26
:1010A0000296918380838A819B8193838283211519
:1010B000310529F4F0930602E09305023DC0E901F1
:1010C000FB83EA8349915991C40FD51FEC17FD07A3
:1010D00061F480819181840F951F0296E9019983C3
:1010E0008883828193819B838A83E0E0F0E012967B
:1010F0008D919C911397009719F0FD01DC01F7CFBA
:101100008D919C9111979D012E5F3F4F820F931FF0
:1011100020910302309104022817390769F43097AF
:1011200029F4109206021092050202C01382128264
:10113000B0930402A0930302DF91CF910895A0E041
:10114000B0E0E5EAF8E00C949909EC01009721F48D
:10115000CB010E947E07B4C0FC01E60FF71F9C0183
:1011600022503109E217F30708F4A8C0D9010D9104
:101170001C91119706171707B0F00530110508F4F8
:101180009BC0C80104978617970708F495C00250C2
:101190001109061B170B019311936D937C93CF01DB
:1011A0000E94160889C05B01A01AB10A4C01800E8A
:1011B000911EA0910502B0910602612C712CE12CC8
:1011C000F12C109709F446C08D919C911197A815A8
:1011D000B905B1F56C0142E0C40ED11CCA14DB04A0
:1011E00078F14C018A189B08640142E0C40ED11CBE
:1011F0001296BC9012971396AC91B5E0CB16D10421
:1012000040F0B282A38391828082D9016D937C9356
:1012100009C00E5F1F4F800F911FF90191838083DA
:10122000EB2DFA2FE114F10431F0D7011396FC9362
:10123000EE93129741C0F0930602E09305023CC082
:101240006816790608F43C017D0112960D90BC9158
:10125000A02DB7CF809103029091040288169906C1
:10126000E1F466167706C8F48091040190910501B7
:10127000009741F48DB79EB7409108015091090144
:10128000841B950BE817F907C8F4F0930402E09368
:101290000302F901718360830FC0CB010E947E07B6
:1012A0007C01009759F0A801BE010E946509CE019A
:1012B0000E941608C70104C0CE0102C080E090E081
:1012C000CDB7DEB7EEE00C94B509FB01DC0102C03E
:1012D00001900D9241505040D8F70895FB01DC0178
:1012E00001900D920020E1F70895991B79E004C068
:1012F000991F961708F0961B881F7A95C9F7809555
:10130000089597FB072E16F4009407D077FD09D0B7
:101310000E94CC0907FC05D03EF4909581959F4F23
:101320000895709561957F4F08952F923F924F9247
:101330005F926F927F928F929F92AF92BF92CF9265
:10134000DF92EF92FF920F931F93CF93DF93CDB76E
:10135000DEB7CA1BDB0B0FB6F894DEBF0FBECDBFE6
:1013600009942A88398848885F846E847D848C84B7
:101370009B84AA84B984C884DF80EE80FD800C81C0
:101380001B81AA81B981CE0FD11D0FB6F894DEBFA3
:101390000FBECDBFED010895AA1BBB1B51E107C0D5
:1013A000AA1FBB1FA617B70710F0A61BB70B881FF5
:1013B000991F5A95A9F780959095BC01CD01089584
:1013C000EE0FFF1F0590F491E02D099410E0CDE59C
:1013D000D0E004C0FE010E94E0092196CE35D1077D
:0613E000C9F7F894FFCFED
:1013E600010001000000070220003030300A000032
:1013F600000082010C014B02CF01EF01C401000085
:00000001FF
